{
  "_format": "hh-sol-artifact-1",
  "contractName": "BasicDutchAuction",
  "sourceName": "contracts/basicDutchAutcion.sol",
  "abi": [
    {
      "inputs": [
        {
          "internalType": "uint256",
          "name": "_reservePrice",
          "type": "uint256"
        },
        {
          "internalType": "uint256",
          "name": "_numBlocksAuctionOpen",
          "type": "uint256"
        },
        {
          "internalType": "uint256",
          "name": "_offerPriceDecrement",
          "type": "uint256"
        }
      ],
      "stateMutability": "nonpayable",
      "type": "constructor"
    },
    {
      "inputs": [],
      "name": "auctionEndBlock",
      "outputs": [
        {
          "internalType": "uint256",
          "name": "",
          "type": "uint256"
        }
      ],
      "stateMutability": "view",
      "type": "function"
    },
    {
      "inputs": [],
      "name": "auction_open",
      "outputs": [
        {
          "internalType": "bool",
          "name": "",
          "type": "bool"
        }
      ],
      "stateMutability": "view",
      "type": "function"
    },
    {
      "inputs": [],
      "name": "bid",
      "outputs": [
        {
          "internalType": "address",
          "name": "",
          "type": "address"
        }
      ],
      "stateMutability": "payable",
      "type": "function"
    },
    {
      "inputs": [],
      "name": "currentPrice",
      "outputs": [
        {
          "internalType": "uint256",
          "name": "",
          "type": "uint256"
        }
      ],
      "stateMutability": "view",
      "type": "function"
    },
    {
      "inputs": [],
      "name": "get_current_price",
      "outputs": [
        {
          "internalType": "uint256",
          "name": "",
          "type": "uint256"
        }
      ],
      "stateMutability": "view",
      "type": "function"
    },
    {
      "inputs": [],
      "name": "initialPrice",
      "outputs": [
        {
          "internalType": "uint256",
          "name": "",
          "type": "uint256"
        }
      ],
      "stateMutability": "view",
      "type": "function"
    },
    {
      "inputs": [],
      "name": "numBlocksAuctionOpen",
      "outputs": [
        {
          "internalType": "uint256",
          "name": "",
          "type": "uint256"
        }
      ],
      "stateMutability": "view",
      "type": "function"
    },
    {
      "inputs": [],
      "name": "offerPriceDecrement",
      "outputs": [
        {
          "internalType": "uint256",
          "name": "",
          "type": "uint256"
        }
      ],
      "stateMutability": "view",
      "type": "function"
    },
    {
      "inputs": [],
      "name": "reservePrice",
      "outputs": [
        {
          "internalType": "uint256",
          "name": "",
          "type": "uint256"
        }
      ],
      "stateMutability": "view",
      "type": "function"
    },
    {
      "inputs": [],
      "name": "seller",
      "outputs": [
        {
          "internalType": "address",
          "name": "",
          "type": "address"
        }
      ],
      "stateMutability": "view",
      "type": "function"
    },
    {
      "inputs": [],
      "name": "winner",
      "outputs": [
        {
          "internalType": "address",
          "name": "",
          "type": "address"
        }
      ],
      "stateMutability": "view",
      "type": "function"
    }
  ],
  "bytecode": "0x60806040523480156200001157600080fd5b5060405162000bf638038062000bf6833981810160405281019062000037919062000136565b336000806101000a81548173ffffffffffffffffffffffffffffffffffffffff021916908373ffffffffffffffffffffffffffffffffffffffff1602179055508260018190555081600281905550806003819055506003546002546200009e9190620001c1565b600154620000ad91906200020c565b60048190555060045460058190555060025443620000cc91906200020c565b6007819055506000600860006101000a81548160ff02191690831515021790555050505062000247565b600080fd5b6000819050919050565b6200011081620000fb565b81146200011c57600080fd5b50565b600081519050620001308162000105565b92915050565b600080600060608486031215620001525762000151620000f6565b5b600062000162868287016200011f565b935050602062000175868287016200011f565b925050604062000188868287016200011f565b9150509250925092565b7f4e487b7100000000000000000000000000000000000000000000000000000000600052601160045260246000fd5b6000620001ce82620000fb565b9150620001db83620000fb565b9250828202620001eb81620000fb565b9150828204841483151762000205576200020462000192565b5b5092915050565b60006200021982620000fb565b91506200022683620000fb565b925082820190508082111562000241576200024062000192565b5b92915050565b61099f80620002576000396000f3fe60806040526004361061009c5760003560e01c80633103ea62116100645780633103ea621461016b578063676a38d7146101965780639d1b464a146101c1578063d3642a88146101ec578063db2e1eed14610217578063dfbf53ae146102425761009c565b806307d52fa8146100a157806308551a53146100cc5780631998aeef146100f75780631d0806ae146101155780632c3d4c8914610140575b600080fd5b3480156100ad57600080fd5b506100b661026d565b6040516100c391906105e4565b60405180910390f35b3480156100d857600080fd5b506100e1610273565b6040516100ee9190610640565b60405180910390f35b6100ff610297565b60405161010c9190610640565b60405180910390f35b34801561012157600080fd5b5061012a61052a565b60405161013791906105e4565b60405180910390f35b34801561014c57600080fd5b50610155610530565b6040516101629190610676565b60405180910390f35b34801561017757600080fd5b5061018061054c565b60405161018d91906105e4565b60405180910390f35b3480156101a257600080fd5b506101ab610552565b6040516101b891906105e4565b60405180910390f35b3480156101cd57600080fd5b506101d6610593565b6040516101e391906105e4565b60405180910390f35b3480156101f857600080fd5b50610201610599565b60405161020e91906105e4565b60405180910390f35b34801561022357600080fd5b5061022c61059f565b60405161023991906105e4565b60405180910390f35b34801561024e57600080fd5b506102576105a5565b6040516102649190610640565b60405180910390f35b60075481565b60008054906101000a900473ffffffffffffffffffffffffffffffffffffffff1681565b60006007544311156102de576040517f08c379a00000000000000000000000000000000000000000000000000000000081526004016102d5906106ee565b60405180910390fd5b60006003546002546007546102f3919061073d565b436102fe919061073d565b6103089190610771565b600454610315919061073d565b90508034101561035a576040517f08c379a000000000000000000000000000000000000000000000000000000000815260040161035190610825565b60405180910390fd5b60001515600860009054906101000a900460ff161515146103b0576040517f08c379a00000000000000000000000000000000000000000000000000000000081526004016103a7906108b7565b60405180910390fd5b60008054906101000a900473ffffffffffffffffffffffffffffffffffffffff1673ffffffffffffffffffffffffffffffffffffffff163373ffffffffffffffffffffffffffffffffffffffff160361043e576040517f08c379a000000000000000000000000000000000000000000000000000000000815260040161043590610949565b60405180910390fd5b33600660006101000a81548173ffffffffffffffffffffffffffffffffffffffff021916908373ffffffffffffffffffffffffffffffffffffffff1602179055506001600860006101000a81548160ff02191690831515021790555060008054906101000a900473ffffffffffffffffffffffffffffffffffffffff1673ffffffffffffffffffffffffffffffffffffffff166108fc349081150290604051600060405180830381858888f19350505050158015610500573d6000803e3d6000fd5b50600660009054906101000a900473ffffffffffffffffffffffffffffffffffffffff1691505090565b60045481565b600060075443116105445760019050610549565b600090505b90565b60025481565b600080600354600254600754610568919061073d565b43610573919061073d565b61057d9190610771565b60045461058a919061073d565b90508091505090565b60055481565b60035481565b60015481565b600660009054906101000a900473ffffffffffffffffffffffffffffffffffffffff1681565b6000819050919050565b6105de816105cb565b82525050565b60006020820190506105f960008301846105d5565b92915050565b600073ffffffffffffffffffffffffffffffffffffffff82169050919050565b600061062a826105ff565b9050919050565b61063a8161061f565b82525050565b60006020820190506106556000830184610631565b92915050565b60008115159050919050565b6106708161065b565b82525050565b600060208201905061068b6000830184610667565b92915050565b600082825260208201905092915050565b7f41756374696f6e2068617320616c726561647920656e6465642e000000000000600082015250565b60006106d8601a83610691565b91506106e3826106a2565b602082019050919050565b60006020820190508181036000830152610707816106cb565b9050919050565b7f4e487b7100000000000000000000000000000000000000000000000000000000600052601160045260246000fd5b6000610748826105cb565b9150610753836105cb565b925082820390508181111561076b5761076a61070e565b5b92915050565b600061077c826105cb565b9150610787836105cb565b9250828202610795816105cb565b915082820484148315176107ac576107ab61070e565b5b5092915050565b7f4269642076616c7565206973206c6f776572207468616e207468652063616c6360008201527f756c617465642070726963652e00000000000000000000000000000000000000602082015250565b600061080f602d83610691565b915061081a826107b3565b604082019050919050565b6000602082019050818103600083015261083e81610802565b9050919050565b7f41756374696f6e2068617320616c726561647920636c6f73656420616e64207760008201527f696e6e657220686173206265656e2064657465726d696e65642e000000000000602082015250565b60006108a1603a83610691565b91506108ac82610845565b604082019050919050565b600060208201905081810360008301526108d081610894565b9050919050565b7f53656c6c65722063616e6e6f7420626964206f6e20686973206f776e2061756360008201527f74696f6e2e000000000000000000000000000000000000000000000000000000602082015250565b6000610933602583610691565b915061093e826108d7565b604082019050919050565b6000602082019050818103600083015261096281610926565b905091905056fea264697066735822122042740bebccd11fb435538c97adba482ee04cd205df4389f7adf4074fb654ae7d64736f6c63430008120033",
  "linkReferences": {},
  "deployedLinkReferences": {}
}