{"contracts/basicDutchAutcion.sol":{"BasicDutchAuction":{"abi":[{"inputs":[{"internalType":"uint256","name":"_reservePrice","type":"uint256"},{"internalType":"uint256","name":"_numBlocksAuctionOpen","type":"uint256"},{"internalType":"uint256","name":"_offerPriceDecrement","type":"uint256"}],"stateMutability":"nonpayable","type":"constructor"},{"inputs":[],"name":"auctionEndBlock","outputs":[{"internalType":"uint256","name":"","type":"uint256"}],"stateMutability":"view","type":"function"},{"inputs":[],"name":"auction_open","outputs":[{"internalType":"bool","name":"","type":"bool"}],"stateMutability":"view","type":"function"},{"inputs":[],"name":"bid","outputs":[{"internalType":"address","name":"","type":"address"}],"stateMutability":"payable","type":"function"},{"inputs":[],"name":"currentPrice","outputs":[{"internalType":"uint256","name":"","type":"uint256"}],"stateMutability":"view","type":"function"},{"inputs":[],"name":"get_current_price","outputs":[{"internalType":"uint256","name":"","type":"uint256"}],"stateMutability":"view","type":"function"},{"inputs":[],"name":"initialPrice","outputs":[{"internalType":"uint256","name":"","type":"uint256"}],"stateMutability":"view","type":"function"},{"inputs":[],"name":"numBlocksAuctionOpen","outputs":[{"internalType":"uint256","name":"","type":"uint256"}],"stateMutability":"view","type":"function"},{"inputs":[],"name":"offerPriceDecrement","outputs":[{"internalType":"uint256","name":"","type":"uint256"}],"stateMutability":"view","type":"function"},{"inputs":[],"name":"reservePrice","outputs":[{"internalType":"uint256","name":"","type":"uint256"}],"stateMutability":"view","type":"function"},{"inputs":[],"name":"seller","outputs":[{"internalType":"address","name":"","type":"address"}],"stateMutability":"view","type":"function"},{"inputs":[],"name":"winner","outputs":[{"internalType":"address","name":"","type":"address"}],"stateMutability":"view","type":"function"}],"evm":{"bytecode":{"linkReferences":{},"object":"60806040523480156200001157600080fd5b506040516200100538038062001005833981810160405281019062000037919062000235565b6200005367b1e67d1e0ac7b71d60c01b620001f260201b60201c565b6200006f67e41cafb03bcf857360c01b620001f260201b60201c565b336000806101000a81548173ffffffffffffffffffffffffffffffffffffffff021916908373ffffffffffffffffffffffffffffffffffffffff160217905550620000cb676cef270949c8f3e160c01b620001f260201b60201c565b82600181905550620000ee67d6b8c7778302370a60c01b620001f260201b60201c565b816002819055506200011167fc2800d9547c92fa60c01b620001f260201b60201c565b8060038190555062000134674bf64795929f8e5d60c01b620001f260201b60201c565b600354600254620001469190620002c0565b6001546200015591906200030b565b6004819055506200017767fe0797a4fb7a8f0060c01b620001f260201b60201c565b6004546005819055506200019c678483294cf51e8a8560c01b620001f260201b60201c565b60025443620001ac91906200030b565b600781905550620001ce67209da138de29e87c60c01b620001f260201b60201c565b6000600860006101000a81548160ff02191690831515021790555050505062000346565b50565b600080fd5b6000819050919050565b6200020f81620001fa565b81146200021b57600080fd5b50565b6000815190506200022f8162000204565b92915050565b600080600060608486031215620002515762000250620001f5565b5b600062000261868287016200021e565b935050602062000274868287016200021e565b925050604062000287868287016200021e565b9150509250925092565b7f4e487b7100000000000000000000000000000000000000000000000000000000600052601160045260246000fd5b6000620002cd82620001fa565b9150620002da83620001fa565b9250828202620002ea81620001fa565b9150828204841483151762000304576200030362000291565b5b5092915050565b60006200031882620001fa565b91506200032583620001fa565b925082820190508082111562000340576200033f62000291565b5b92915050565b610caf80620003566000396000f3fe60806040526004361061009c5760003560e01c80633103ea62116100645780633103ea621461016b578063676a38d7146101965780639d1b464a146101c1578063d3642a88146101ec578063db2e1eed14610217578063dfbf53ae146102425761009c565b806307d52fa8146100a157806308551a53146100cc5780631998aeef146100f75780631d0806ae146101155780632c3d4c8914610140575b600080fd5b3480156100ad57600080fd5b506100b661026d565b6040516100c391906108f4565b60405180910390f35b3480156100d857600080fd5b506100e1610273565b6040516100ee9190610950565b60405180910390f35b6100ff610297565b60405161010c9190610950565b60405180910390f35b34801561012157600080fd5b5061012a61071e565b60405161013791906108f4565b60405180910390f35b34801561014c57600080fd5b50610155610724565b6040516101629190610986565b60405180910390f35b34801561017757600080fd5b506101806107f4565b60405161018d91906108f4565b60405180910390f35b3480156101a257600080fd5b506101ab6107fa565b6040516101b891906108f4565b60405180910390f35b3480156101cd57600080fd5b506101d66108a0565b6040516101e391906108f4565b60405180910390f35b3480156101f857600080fd5b506102016108a6565b60405161020e91906108f4565b60405180910390f35b34801561022357600080fd5b5061022c6108ac565b60405161023991906108f4565b60405180910390f35b34801561024e57600080fd5b506102576108b2565b6040516102649190610950565b60405180910390f35b60075481565b60008054906101000a900473ffffffffffffffffffffffffffffffffffffffff1681565b60006102ad679b3439abc50d4ef460c01b6108d8565b6102c167b05f89b4a59449bb60c01b6108d8565b6102d567d35e6016b691069c60c01b6108d8565b6102e96705e20ec36484851660c01b6108d8565b60075443111561032e576040517f08c379a0000000000000000000000000000000000000000000000000000000008152600401610325906109fe565b60405180910390fd5b61034267ea383df8e8ae0ebd60c01b6108d8565b61035667dc94bd1fb14d922d60c01b6108d8565b61036a67125a73f29de4348060c01b6108d8565b600060035460025460075461037f9190610a4d565b4361038a9190610a4d565b6103949190610a81565b6004546103a19190610a4d565b90506103b767a4d097ae40a6ac7560c01b6108d8565b6103cb673b3048246835e44960c01b6108d8565b6103df67f04b8c5dc3b8244660c01b6108d8565b80341015610422576040517f08c379a000000000000000000000000000000000000000000000000000000000815260040161041990610b35565b60405180910390fd5b61043667bc46e7ddcf039e3760c01b6108d8565b61044a6719a0ed83a7ff55a460c01b6108d8565b61045e67e8e9078fa6a07f8a60c01b6108d8565b61047267ec2982ea86c6bd8e60c01b6108d8565b60001515600860009054906101000a900460ff161515146104c8576040517f08c379a00000000000000000000000000000000000000000000000000000000081526004016104bf90610bc7565b60405180910390fd5b6104dc67de932da550f6d72460c01b6108d8565b6104f067df46f32907c5c4b760c01b6108d8565b610504671c72ad51980400d760c01b6108d8565b6105186741832f136266956060c01b6108d8565b60008054906101000a900473ffffffffffffffffffffffffffffffffffffffff1673ffffffffffffffffffffffffffffffffffffffff163373ffffffffffffffffffffffffffffffffffffffff16036105a6576040517f08c379a000000000000000000000000000000000000000000000000000000000815260040161059d90610c59565b60405180910390fd5b6105ba676b31e0348f95459260c01b6108d8565b6105ce67c4ac6752407b644c60c01b6108d8565b33600660006101000a81548173ffffffffffffffffffffffffffffffffffffffff021916908373ffffffffffffffffffffffffffffffffffffffff160217905550610623670ef74b0af195493460c01b6108d8565b6001600860006101000a81548160ff0219169083151502179055506106526723d26890ccc7e81a60c01b6108d8565b61066667c7bde855f2153bf760c01b6108d8565b60008054906101000a900473ffffffffffffffffffffffffffffffffffffffff1673ffffffffffffffffffffffffffffffffffffffff166108fc349081150290604051600060405180830381858888f193505050501580156106cc573d6000803e3d6000fd5b506106e1674a2bedb54b89af1360c01b6108d8565b6106f567d32557937360cf5c60c01b6108d8565b600660009054906101000a900473ffffffffffffffffffffffffffffffffffffffff1691505090565b60045481565b600061073a678c11950489529e5260c01b6108d8565b61074e67e05f84afe395febd60c01b6108d8565b61076267c4fa766b716a3ae060c01b6108d8565b60075443116107b05761077f67eeb553b7ff79574560c01b6108d8565b6107936792b36d7993980cc360c01b6108d8565b6107a76784a1be5f06af6b1c60c01b6108d8565b600190506107f1565b6107c4671e2fb4a6c604cfd660c01b6108d8565b6107d86712ed035cef12de5360c01b6108d8565b6107ec67ae91ec9aa65c9b3460c01b6108d8565b600090505b90565b60025481565b60006108106730e4c186b6ec705760c01b6108d8565b6108246718a47f517bbc97b960c01b6108d8565b610838674b4f5593b2b2c45560c01b6108d8565b600060035460025460075461084d9190610a4d565b436108589190610a4d565b6108629190610a81565b60045461086f9190610a4d565b905061088567a5d40fad6a063ffd60c01b6108d8565b610899673e104ad38951faf560c01b6108d8565b8091505090565b60055481565b60035481565b60015481565b600660009054906101000a900473ffffffffffffffffffffffffffffffffffffffff1681565b50565b6000819050919050565b6108ee816108db565b82525050565b600060208201905061090960008301846108e5565b92915050565b600073ffffffffffffffffffffffffffffffffffffffff82169050919050565b600061093a8261090f565b9050919050565b61094a8161092f565b82525050565b60006020820190506109656000830184610941565b92915050565b60008115159050919050565b6109808161096b565b82525050565b600060208201905061099b6000830184610977565b92915050565b600082825260208201905092915050565b7f41756374696f6e2068617320616c726561647920656e6465642e000000000000600082015250565b60006109e8601a836109a1565b91506109f3826109b2565b602082019050919050565b60006020820190508181036000830152610a17816109db565b9050919050565b7f4e487b7100000000000000000000000000000000000000000000000000000000600052601160045260246000fd5b6000610a58826108db565b9150610a63836108db565b9250828203905081811115610a7b57610a7a610a1e565b5b92915050565b6000610a8c826108db565b9150610a97836108db565b9250828202610aa5816108db565b91508282048414831517610abc57610abb610a1e565b5b5092915050565b7f4269642076616c7565206973206c6f776572207468616e207468652063616c6360008201527f756c617465642070726963652e00000000000000000000000000000000000000602082015250565b6000610b1f602d836109a1565b9150610b2a82610ac3565b604082019050919050565b60006020820190508181036000830152610b4e81610b12565b9050919050565b7f41756374696f6e2068617320616c726561647920636c6f73656420616e64207760008201527f696e6e657220686173206265656e2064657465726d696e65642e000000000000602082015250565b6000610bb1603a836109a1565b9150610bbc82610b55565b604082019050919050565b60006020820190508181036000830152610be081610ba4565b9050919050565b7f53656c6c65722063616e6e6f7420626964206f6e20686973206f776e2061756360008201527f74696f6e2e000000000000000000000000000000000000000000000000000000602082015250565b6000610c436025836109a1565b9150610c4e82610be7565b604082019050919050565b60006020820190508181036000830152610c7281610c36565b905091905056fea2646970667358221220e037ce69248205d3f82b21fefb221406b796b8a004da6dbd736ba0a7a46d5c7264736f6c63430008120033","opcodes":"PUSH1 0x80 PUSH1 0x40 MSTORE CALLVALUE DUP1 ISZERO PUSH3 0x11 JUMPI PUSH1 0x0 DUP1 REVERT JUMPDEST POP PUSH1 0x40 MLOAD PUSH3 0x1005 CODESIZE SUB DUP1 PUSH3 0x1005 DUP4 CODECOPY DUP2 DUP2 ADD PUSH1 0x40 MSTORE DUP2 ADD SWAP1 PUSH3 0x37 SWAP2 SWAP1 PUSH3 0x235 JUMP JUMPDEST PUSH3 0x53 PUSH8 0xB1E67D1E0AC7B71D PUSH1 0xC0 SHL PUSH3 0x1F2 PUSH1 0x20 SHL PUSH1 0x20 SHR JUMP JUMPDEST PUSH3 0x6F PUSH8 0xE41CAFB03BCF8573 PUSH1 0xC0 SHL PUSH3 0x1F2 PUSH1 0x20 SHL PUSH1 0x20 SHR JUMP JUMPDEST CALLER PUSH1 0x0 DUP1 PUSH2 0x100 EXP DUP2 SLOAD DUP2 PUSH20 0xFFFFFFFFFFFFFFFFFFFFFFFFFFFFFFFFFFFFFFFF MUL NOT AND SWAP1 DUP4 PUSH20 0xFFFFFFFFFFFFFFFFFFFFFFFFFFFFFFFFFFFFFFFF AND MUL OR SWAP1 SSTORE POP PUSH3 0xCB PUSH8 0x6CEF270949C8F3E1 PUSH1 0xC0 SHL PUSH3 0x1F2 PUSH1 0x20 SHL PUSH1 0x20 SHR JUMP JUMPDEST DUP3 PUSH1 0x1 DUP2 SWAP1 SSTORE POP PUSH3 0xEE PUSH8 0xD6B8C7778302370A PUSH1 0xC0 SHL PUSH3 0x1F2 PUSH1 0x20 SHL PUSH1 0x20 SHR JUMP JUMPDEST DUP2 PUSH1 0x2 DUP2 SWAP1 SSTORE POP PUSH3 0x111 PUSH8 0xFC2800D9547C92FA PUSH1 0xC0 SHL PUSH3 0x1F2 PUSH1 0x20 SHL PUSH1 0x20 SHR JUMP JUMPDEST DUP1 PUSH1 0x3 DUP2 SWAP1 SSTORE POP PUSH3 0x134 PUSH8 0x4BF64795929F8E5D PUSH1 0xC0 SHL PUSH3 0x1F2 PUSH1 0x20 SHL PUSH1 0x20 SHR JUMP JUMPDEST PUSH1 0x3 SLOAD PUSH1 0x2 SLOAD PUSH3 0x146 SWAP2 SWAP1 PUSH3 0x2C0 JUMP JUMPDEST PUSH1 0x1 SLOAD PUSH3 0x155 SWAP2 SWAP1 PUSH3 0x30B JUMP JUMPDEST PUSH1 0x4 DUP2 SWAP1 SSTORE POP PUSH3 0x177 PUSH8 0xFE0797A4FB7A8F00 PUSH1 0xC0 SHL PUSH3 0x1F2 PUSH1 0x20 SHL PUSH1 0x20 SHR JUMP JUMPDEST PUSH1 0x4 SLOAD PUSH1 0x5 DUP2 SWAP1 SSTORE POP PUSH3 0x19C PUSH8 0x8483294CF51E8A85 PUSH1 0xC0 SHL PUSH3 0x1F2 PUSH1 0x20 SHL PUSH1 0x20 SHR JUMP JUMPDEST PUSH1 0x2 SLOAD NUMBER PUSH3 0x1AC SWAP2 SWAP1 PUSH3 0x30B JUMP JUMPDEST PUSH1 0x7 DUP2 SWAP1 SSTORE POP PUSH3 0x1CE PUSH8 0x209DA138DE29E87C PUSH1 0xC0 SHL PUSH3 0x1F2 PUSH1 0x20 SHL PUSH1 0x20 SHR JUMP JUMPDEST PUSH1 0x0 PUSH1 0x8 PUSH1 0x0 PUSH2 0x100 EXP DUP2 SLOAD DUP2 PUSH1 0xFF MUL NOT AND SWAP1 DUP4 ISZERO ISZERO MUL OR SWAP1 SSTORE POP POP POP POP PUSH3 0x346 JUMP JUMPDEST POP JUMP JUMPDEST PUSH1 0x0 DUP1 REVERT JUMPDEST PUSH1 0x0 DUP2 SWAP1 POP SWAP2 SWAP1 POP JUMP JUMPDEST PUSH3 0x20F DUP2 PUSH3 0x1FA JUMP JUMPDEST DUP2 EQ PUSH3 0x21B JUMPI PUSH1 0x0 DUP1 REVERT JUMPDEST POP JUMP JUMPDEST PUSH1 0x0 DUP2 MLOAD SWAP1 POP PUSH3 0x22F DUP2 PUSH3 0x204 JUMP JUMPDEST SWAP3 SWAP2 POP POP JUMP JUMPDEST PUSH1 0x0 DUP1 PUSH1 0x0 PUSH1 0x60 DUP5 DUP7 SUB SLT ISZERO PUSH3 0x251 JUMPI PUSH3 0x250 PUSH3 0x1F5 JUMP JUMPDEST JUMPDEST PUSH1 0x0 PUSH3 0x261 DUP7 DUP3 DUP8 ADD PUSH3 0x21E JUMP JUMPDEST SWAP4 POP POP PUSH1 0x20 PUSH3 0x274 DUP7 DUP3 DUP8 ADD PUSH3 0x21E JUMP JUMPDEST SWAP3 POP POP PUSH1 0x40 PUSH3 0x287 DUP7 DUP3 DUP8 ADD PUSH3 0x21E JUMP JUMPDEST SWAP2 POP POP SWAP3 POP SWAP3 POP SWAP3 JUMP JUMPDEST PUSH32 0x4E487B7100000000000000000000000000000000000000000000000000000000 PUSH1 0x0 MSTORE PUSH1 0x11 PUSH1 0x4 MSTORE PUSH1 0x24 PUSH1 0x0 REVERT JUMPDEST PUSH1 0x0 PUSH3 0x2CD DUP3 PUSH3 0x1FA JUMP JUMPDEST SWAP2 POP PUSH3 0x2DA DUP4 PUSH3 0x1FA JUMP JUMPDEST SWAP3 POP DUP3 DUP3 MUL PUSH3 0x2EA DUP2 PUSH3 0x1FA JUMP JUMPDEST SWAP2 POP DUP3 DUP3 DIV DUP5 EQ DUP4 ISZERO OR PUSH3 0x304 JUMPI PUSH3 0x303 PUSH3 0x291 JUMP JUMPDEST JUMPDEST POP SWAP3 SWAP2 POP POP JUMP JUMPDEST PUSH1 0x0 PUSH3 0x318 DUP3 PUSH3 0x1FA JUMP JUMPDEST SWAP2 POP PUSH3 0x325 DUP4 PUSH3 0x1FA JUMP JUMPDEST SWAP3 POP DUP3 DUP3 ADD SWAP1 POP DUP1 DUP3 GT ISZERO PUSH3 0x340 JUMPI PUSH3 0x33F PUSH3 0x291 JUMP JUMPDEST JUMPDEST SWAP3 SWAP2 POP POP JUMP JUMPDEST PUSH2 0xCAF DUP1 PUSH3 0x356 PUSH1 0x0 CODECOPY PUSH1 0x0 RETURN INVALID PUSH1 0x80 PUSH1 0x40 MSTORE PUSH1 0x4 CALLDATASIZE LT PUSH2 0x9C JUMPI PUSH1 0x0 CALLDATALOAD PUSH1 0xE0 SHR DUP1 PUSH4 0x3103EA62 GT PUSH2 0x64 JUMPI DUP1 PUSH4 0x3103EA62 EQ PUSH2 0x16B JUMPI DUP1 PUSH4 0x676A38D7 EQ PUSH2 0x196 JUMPI DUP1 PUSH4 0x9D1B464A EQ PUSH2 0x1C1 JUMPI DUP1 PUSH4 0xD3642A88 EQ PUSH2 0x1EC JUMPI DUP1 PUSH4 0xDB2E1EED EQ PUSH2 0x217 JUMPI DUP1 PUSH4 0xDFBF53AE EQ PUSH2 0x242 JUMPI PUSH2 0x9C JUMP JUMPDEST DUP1 PUSH4 0x7D52FA8 EQ PUSH2 0xA1 JUMPI DUP1 PUSH4 0x8551A53 EQ PUSH2 0xCC JUMPI DUP1 PUSH4 0x1998AEEF EQ PUSH2 0xF7 JUMPI DUP1 PUSH4 0x1D0806AE EQ PUSH2 0x115 JUMPI DUP1 PUSH4 0x2C3D4C89 EQ PUSH2 0x140 JUMPI JUMPDEST PUSH1 0x0 DUP1 REVERT JUMPDEST CALLVALUE DUP1 ISZERO PUSH2 0xAD JUMPI PUSH1 0x0 DUP1 REVERT JUMPDEST POP PUSH2 0xB6 PUSH2 0x26D JUMP JUMPDEST PUSH1 0x40 MLOAD PUSH2 0xC3 SWAP2 SWAP1 PUSH2 0x8F4 JUMP JUMPDEST PUSH1 0x40 MLOAD DUP1 SWAP2 SUB SWAP1 RETURN JUMPDEST CALLVALUE DUP1 ISZERO PUSH2 0xD8 JUMPI PUSH1 0x0 DUP1 REVERT JUMPDEST POP PUSH2 0xE1 PUSH2 0x273 JUMP JUMPDEST PUSH1 0x40 MLOAD PUSH2 0xEE SWAP2 SWAP1 PUSH2 0x950 JUMP JUMPDEST PUSH1 0x40 MLOAD DUP1 SWAP2 SUB SWAP1 RETURN JUMPDEST PUSH2 0xFF PUSH2 0x297 JUMP JUMPDEST PUSH1 0x40 MLOAD PUSH2 0x10C SWAP2 SWAP1 PUSH2 0x950 JUMP JUMPDEST PUSH1 0x40 MLOAD DUP1 SWAP2 SUB SWAP1 RETURN JUMPDEST CALLVALUE DUP1 ISZERO PUSH2 0x121 JUMPI PUSH1 0x0 DUP1 REVERT JUMPDEST POP PUSH2 0x12A PUSH2 0x71E JUMP JUMPDEST PUSH1 0x40 MLOAD PUSH2 0x137 SWAP2 SWAP1 PUSH2 0x8F4 JUMP JUMPDEST PUSH1 0x40 MLOAD DUP1 SWAP2 SUB SWAP1 RETURN JUMPDEST CALLVALUE DUP1 ISZERO PUSH2 0x14C JUMPI PUSH1 0x0 DUP1 REVERT JUMPDEST POP PUSH2 0x155 PUSH2 0x724 JUMP JUMPDEST PUSH1 0x40 MLOAD PUSH2 0x162 SWAP2 SWAP1 PUSH2 0x986 JUMP JUMPDEST PUSH1 0x40 MLOAD DUP1 SWAP2 SUB SWAP1 RETURN JUMPDEST CALLVALUE DUP1 ISZERO PUSH2 0x177 JUMPI PUSH1 0x0 DUP1 REVERT JUMPDEST POP PUSH2 0x180 PUSH2 0x7F4 JUMP JUMPDEST PUSH1 0x40 MLOAD PUSH2 0x18D SWAP2 SWAP1 PUSH2 0x8F4 JUMP JUMPDEST PUSH1 0x40 MLOAD DUP1 SWAP2 SUB SWAP1 RETURN JUMPDEST CALLVALUE DUP1 ISZERO PUSH2 0x1A2 JUMPI PUSH1 0x0 DUP1 REVERT JUMPDEST POP PUSH2 0x1AB PUSH2 0x7FA JUMP JUMPDEST PUSH1 0x40 MLOAD PUSH2 0x1B8 SWAP2 SWAP1 PUSH2 0x8F4 JUMP JUMPDEST PUSH1 0x40 MLOAD DUP1 SWAP2 SUB SWAP1 RETURN JUMPDEST CALLVALUE DUP1 ISZERO PUSH2 0x1CD JUMPI PUSH1 0x0 DUP1 REVERT JUMPDEST POP PUSH2 0x1D6 PUSH2 0x8A0 JUMP JUMPDEST PUSH1 0x40 MLOAD PUSH2 0x1E3 SWAP2 SWAP1 PUSH2 0x8F4 JUMP JUMPDEST PUSH1 0x40 MLOAD DUP1 SWAP2 SUB SWAP1 RETURN JUMPDEST CALLVALUE DUP1 ISZERO PUSH2 0x1F8 JUMPI PUSH1 0x0 DUP1 REVERT JUMPDEST POP PUSH2 0x201 PUSH2 0x8A6 JUMP JUMPDEST PUSH1 0x40 MLOAD PUSH2 0x20E SWAP2 SWAP1 PUSH2 0x8F4 JUMP JUMPDEST PUSH1 0x40 MLOAD DUP1 SWAP2 SUB SWAP1 RETURN JUMPDEST CALLVALUE DUP1 ISZERO PUSH2 0x223 JUMPI PUSH1 0x0 DUP1 REVERT JUMPDEST POP PUSH2 0x22C PUSH2 0x8AC JUMP JUMPDEST PUSH1 0x40 MLOAD PUSH2 0x239 SWAP2 SWAP1 PUSH2 0x8F4 JUMP JUMPDEST PUSH1 0x40 MLOAD DUP1 SWAP2 SUB SWAP1 RETURN JUMPDEST CALLVALUE DUP1 ISZERO PUSH2 0x24E JUMPI PUSH1 0x0 DUP1 REVERT JUMPDEST POP PUSH2 0x257 PUSH2 0x8B2 JUMP JUMPDEST PUSH1 0x40 MLOAD PUSH2 0x264 SWAP2 SWAP1 PUSH2 0x950 JUMP JUMPDEST PUSH1 0x40 MLOAD DUP1 SWAP2 SUB SWAP1 RETURN JUMPDEST PUSH1 0x7 SLOAD DUP2 JUMP JUMPDEST PUSH1 0x0 DUP1 SLOAD SWAP1 PUSH2 0x100 EXP SWAP1 DIV PUSH20 0xFFFFFFFFFFFFFFFFFFFFFFFFFFFFFFFFFFFFFFFF AND DUP2 JUMP JUMPDEST PUSH1 0x0 PUSH2 0x2AD PUSH8 0x9B3439ABC50D4EF4 PUSH1 0xC0 SHL PUSH2 0x8D8 JUMP JUMPDEST PUSH2 0x2C1 PUSH8 0xB05F89B4A59449BB PUSH1 0xC0 SHL PUSH2 0x8D8 JUMP JUMPDEST PUSH2 0x2D5 PUSH8 0xD35E6016B691069C PUSH1 0xC0 SHL PUSH2 0x8D8 JUMP JUMPDEST PUSH2 0x2E9 PUSH8 0x5E20EC364848516 PUSH1 0xC0 SHL PUSH2 0x8D8 JUMP JUMPDEST PUSH1 0x7 SLOAD NUMBER GT ISZERO PUSH2 0x32E JUMPI PUSH1 0x40 MLOAD PUSH32 0x8C379A000000000000000000000000000000000000000000000000000000000 DUP2 MSTORE PUSH1 0x4 ADD PUSH2 0x325 SWAP1 PUSH2 0x9FE JUMP JUMPDEST PUSH1 0x40 MLOAD DUP1 SWAP2 SUB SWAP1 REVERT JUMPDEST PUSH2 0x342 PUSH8 0xEA383DF8E8AE0EBD PUSH1 0xC0 SHL PUSH2 0x8D8 JUMP JUMPDEST PUSH2 0x356 PUSH8 0xDC94BD1FB14D922D PUSH1 0xC0 SHL PUSH2 0x8D8 JUMP JUMPDEST PUSH2 0x36A PUSH8 0x125A73F29DE43480 PUSH1 0xC0 SHL PUSH2 0x8D8 JUMP JUMPDEST PUSH1 0x0 PUSH1 0x3 SLOAD PUSH1 0x2 SLOAD PUSH1 0x7 SLOAD PUSH2 0x37F SWAP2 SWAP1 PUSH2 0xA4D JUMP JUMPDEST NUMBER PUSH2 0x38A SWAP2 SWAP1 PUSH2 0xA4D JUMP JUMPDEST PUSH2 0x394 SWAP2 SWAP1 PUSH2 0xA81 JUMP JUMPDEST PUSH1 0x4 SLOAD PUSH2 0x3A1 SWAP2 SWAP1 PUSH2 0xA4D JUMP JUMPDEST SWAP1 POP PUSH2 0x3B7 PUSH8 0xA4D097AE40A6AC75 PUSH1 0xC0 SHL PUSH2 0x8D8 JUMP JUMPDEST PUSH2 0x3CB PUSH8 0x3B3048246835E449 PUSH1 0xC0 SHL PUSH2 0x8D8 JUMP JUMPDEST PUSH2 0x3DF PUSH8 0xF04B8C5DC3B82446 PUSH1 0xC0 SHL PUSH2 0x8D8 JUMP JUMPDEST DUP1 CALLVALUE LT ISZERO PUSH2 0x422 JUMPI PUSH1 0x40 MLOAD PUSH32 0x8C379A000000000000000000000000000000000000000000000000000000000 DUP2 MSTORE PUSH1 0x4 ADD PUSH2 0x419 SWAP1 PUSH2 0xB35 JUMP JUMPDEST PUSH1 0x40 MLOAD DUP1 SWAP2 SUB SWAP1 REVERT JUMPDEST PUSH2 0x436 PUSH8 0xBC46E7DDCF039E37 PUSH1 0xC0 SHL PUSH2 0x8D8 JUMP JUMPDEST PUSH2 0x44A PUSH8 0x19A0ED83A7FF55A4 PUSH1 0xC0 SHL PUSH2 0x8D8 JUMP JUMPDEST PUSH2 0x45E PUSH8 0xE8E9078FA6A07F8A PUSH1 0xC0 SHL PUSH2 0x8D8 JUMP JUMPDEST PUSH2 0x472 PUSH8 0xEC2982EA86C6BD8E PUSH1 0xC0 SHL PUSH2 0x8D8 JUMP JUMPDEST PUSH1 0x0 ISZERO ISZERO PUSH1 0x8 PUSH1 0x0 SWAP1 SLOAD SWAP1 PUSH2 0x100 EXP SWAP1 DIV PUSH1 0xFF AND ISZERO ISZERO EQ PUSH2 0x4C8 JUMPI PUSH1 0x40 MLOAD PUSH32 0x8C379A000000000000000000000000000000000000000000000000000000000 DUP2 MSTORE PUSH1 0x4 ADD PUSH2 0x4BF SWAP1 PUSH2 0xBC7 JUMP JUMPDEST PUSH1 0x40 MLOAD DUP1 SWAP2 SUB SWAP1 REVERT JUMPDEST PUSH2 0x4DC PUSH8 0xDE932DA550F6D724 PUSH1 0xC0 SHL PUSH2 0x8D8 JUMP JUMPDEST PUSH2 0x4F0 PUSH8 0xDF46F32907C5C4B7 PUSH1 0xC0 SHL PUSH2 0x8D8 JUMP JUMPDEST PUSH2 0x504 PUSH8 0x1C72AD51980400D7 PUSH1 0xC0 SHL PUSH2 0x8D8 JUMP JUMPDEST PUSH2 0x518 PUSH8 0x41832F1362669560 PUSH1 0xC0 SHL PUSH2 0x8D8 JUMP JUMPDEST PUSH1 0x0 DUP1 SLOAD SWAP1 PUSH2 0x100 EXP SWAP1 DIV PUSH20 0xFFFFFFFFFFFFFFFFFFFFFFFFFFFFFFFFFFFFFFFF AND PUSH20 0xFFFFFFFFFFFFFFFFFFFFFFFFFFFFFFFFFFFFFFFF AND CALLER PUSH20 0xFFFFFFFFFFFFFFFFFFFFFFFFFFFFFFFFFFFFFFFF AND SUB PUSH2 0x5A6 JUMPI PUSH1 0x40 MLOAD PUSH32 0x8C379A000000000000000000000000000000000000000000000000000000000 DUP2 MSTORE PUSH1 0x4 ADD PUSH2 0x59D SWAP1 PUSH2 0xC59 JUMP JUMPDEST PUSH1 0x40 MLOAD DUP1 SWAP2 SUB SWAP1 REVERT JUMPDEST PUSH2 0x5BA PUSH8 0x6B31E0348F954592 PUSH1 0xC0 SHL PUSH2 0x8D8 JUMP JUMPDEST PUSH2 0x5CE PUSH8 0xC4AC6752407B644C PUSH1 0xC0 SHL PUSH2 0x8D8 JUMP JUMPDEST CALLER PUSH1 0x6 PUSH1 0x0 PUSH2 0x100 EXP DUP2 SLOAD DUP2 PUSH20 0xFFFFFFFFFFFFFFFFFFFFFFFFFFFFFFFFFFFFFFFF MUL NOT AND SWAP1 DUP4 PUSH20 0xFFFFFFFFFFFFFFFFFFFFFFFFFFFFFFFFFFFFFFFF AND MUL OR SWAP1 SSTORE POP PUSH2 0x623 PUSH8 0xEF74B0AF1954934 PUSH1 0xC0 SHL PUSH2 0x8D8 JUMP JUMPDEST PUSH1 0x1 PUSH1 0x8 PUSH1 0x0 PUSH2 0x100 EXP DUP2 SLOAD DUP2 PUSH1 0xFF MUL NOT AND SWAP1 DUP4 ISZERO ISZERO MUL OR SWAP1 SSTORE POP PUSH2 0x652 PUSH8 0x23D26890CCC7E81A PUSH1 0xC0 SHL PUSH2 0x8D8 JUMP JUMPDEST PUSH2 0x666 PUSH8 0xC7BDE855F2153BF7 PUSH1 0xC0 SHL PUSH2 0x8D8 JUMP JUMPDEST PUSH1 0x0 DUP1 SLOAD SWAP1 PUSH2 0x100 EXP SWAP1 DIV PUSH20 0xFFFFFFFFFFFFFFFFFFFFFFFFFFFFFFFFFFFFFFFF AND PUSH20 0xFFFFFFFFFFFFFFFFFFFFFFFFFFFFFFFFFFFFFFFF AND PUSH2 0x8FC CALLVALUE SWAP1 DUP2 ISZERO MUL SWAP1 PUSH1 0x40 MLOAD PUSH1 0x0 PUSH1 0x40 MLOAD DUP1 DUP4 SUB DUP2 DUP6 DUP9 DUP9 CALL SWAP4 POP POP POP POP ISZERO DUP1 ISZERO PUSH2 0x6CC JUMPI RETURNDATASIZE PUSH1 0x0 DUP1 RETURNDATACOPY RETURNDATASIZE PUSH1 0x0 REVERT JUMPDEST POP PUSH2 0x6E1 PUSH8 0x4A2BEDB54B89AF13 PUSH1 0xC0 SHL PUSH2 0x8D8 JUMP JUMPDEST PUSH2 0x6F5 PUSH8 0xD32557937360CF5C PUSH1 0xC0 SHL PUSH2 0x8D8 JUMP JUMPDEST PUSH1 0x6 PUSH1 0x0 SWAP1 SLOAD SWAP1 PUSH2 0x100 EXP SWAP1 DIV PUSH20 0xFFFFFFFFFFFFFFFFFFFFFFFFFFFFFFFFFFFFFFFF AND SWAP2 POP POP SWAP1 JUMP JUMPDEST PUSH1 0x4 SLOAD DUP2 JUMP JUMPDEST PUSH1 0x0 PUSH2 0x73A PUSH8 0x8C11950489529E52 PUSH1 0xC0 SHL PUSH2 0x8D8 JUMP JUMPDEST PUSH2 0x74E PUSH8 0xE05F84AFE395FEBD PUSH1 0xC0 SHL PUSH2 0x8D8 JUMP JUMPDEST PUSH2 0x762 PUSH8 0xC4FA766B716A3AE0 PUSH1 0xC0 SHL PUSH2 0x8D8 JUMP JUMPDEST PUSH1 0x7 SLOAD NUMBER GT PUSH2 0x7B0 JUMPI PUSH2 0x77F PUSH8 0xEEB553B7FF795745 PUSH1 0xC0 SHL PUSH2 0x8D8 JUMP JUMPDEST PUSH2 0x793 PUSH8 0x92B36D7993980CC3 PUSH1 0xC0 SHL PUSH2 0x8D8 JUMP JUMPDEST PUSH2 0x7A7 PUSH8 0x84A1BE5F06AF6B1C PUSH1 0xC0 SHL PUSH2 0x8D8 JUMP JUMPDEST PUSH1 0x1 SWAP1 POP PUSH2 0x7F1 JUMP JUMPDEST PUSH2 0x7C4 PUSH8 0x1E2FB4A6C604CFD6 PUSH1 0xC0 SHL PUSH2 0x8D8 JUMP JUMPDEST PUSH2 0x7D8 PUSH8 0x12ED035CEF12DE53 PUSH1 0xC0 SHL PUSH2 0x8D8 JUMP JUMPDEST PUSH2 0x7EC PUSH8 0xAE91EC9AA65C9B34 PUSH1 0xC0 SHL PUSH2 0x8D8 JUMP JUMPDEST PUSH1 0x0 SWAP1 POP JUMPDEST SWAP1 JUMP JUMPDEST PUSH1 0x2 SLOAD DUP2 JUMP JUMPDEST PUSH1 0x0 PUSH2 0x810 PUSH8 0x30E4C186B6EC7057 PUSH1 0xC0 SHL PUSH2 0x8D8 JUMP JUMPDEST PUSH2 0x824 PUSH8 0x18A47F517BBC97B9 PUSH1 0xC0 SHL PUSH2 0x8D8 JUMP JUMPDEST PUSH2 0x838 PUSH8 0x4B4F5593B2B2C455 PUSH1 0xC0 SHL PUSH2 0x8D8 JUMP JUMPDEST PUSH1 0x0 PUSH1 0x3 SLOAD PUSH1 0x2 SLOAD PUSH1 0x7 SLOAD PUSH2 0x84D SWAP2 SWAP1 PUSH2 0xA4D JUMP JUMPDEST NUMBER PUSH2 0x858 SWAP2 SWAP1 PUSH2 0xA4D JUMP JUMPDEST PUSH2 0x862 SWAP2 SWAP1 PUSH2 0xA81 JUMP JUMPDEST PUSH1 0x4 SLOAD PUSH2 0x86F SWAP2 SWAP1 PUSH2 0xA4D JUMP JUMPDEST SWAP1 POP PUSH2 0x885 PUSH8 0xA5D40FAD6A063FFD PUSH1 0xC0 SHL PUSH2 0x8D8 JUMP JUMPDEST PUSH2 0x899 PUSH8 0x3E104AD38951FAF5 PUSH1 0xC0 SHL PUSH2 0x8D8 JUMP JUMPDEST DUP1 SWAP2 POP POP SWAP1 JUMP JUMPDEST PUSH1 0x5 SLOAD DUP2 JUMP JUMPDEST PUSH1 0x3 SLOAD DUP2 JUMP JUMPDEST PUSH1 0x1 SLOAD DUP2 JUMP JUMPDEST PUSH1 0x6 PUSH1 0x0 SWAP1 SLOAD SWAP1 PUSH2 0x100 EXP SWAP1 DIV PUSH20 0xFFFFFFFFFFFFFFFFFFFFFFFFFFFFFFFFFFFFFFFF AND DUP2 JUMP JUMPDEST POP JUMP JUMPDEST PUSH1 0x0 DUP2 SWAP1 POP SWAP2 SWAP1 POP JUMP JUMPDEST PUSH2 0x8EE DUP2 PUSH2 0x8DB JUMP JUMPDEST DUP3 MSTORE POP POP JUMP JUMPDEST PUSH1 0x0 PUSH1 0x20 DUP3 ADD SWAP1 POP PUSH2 0x909 PUSH1 0x0 DUP4 ADD DUP5 PUSH2 0x8E5 JUMP JUMPDEST SWAP3 SWAP2 POP POP JUMP JUMPDEST PUSH1 0x0 PUSH20 0xFFFFFFFFFFFFFFFFFFFFFFFFFFFFFFFFFFFFFFFF DUP3 AND SWAP1 POP SWAP2 SWAP1 POP JUMP JUMPDEST PUSH1 0x0 PUSH2 0x93A DUP3 PUSH2 0x90F JUMP JUMPDEST SWAP1 POP SWAP2 SWAP1 POP JUMP JUMPDEST PUSH2 0x94A DUP2 PUSH2 0x92F JUMP JUMPDEST DUP3 MSTORE POP POP JUMP JUMPDEST PUSH1 0x0 PUSH1 0x20 DUP3 ADD SWAP1 POP PUSH2 0x965 PUSH1 0x0 DUP4 ADD DUP5 PUSH2 0x941 JUMP JUMPDEST SWAP3 SWAP2 POP POP JUMP JUMPDEST PUSH1 0x0 DUP2 ISZERO ISZERO SWAP1 POP SWAP2 SWAP1 POP JUMP JUMPDEST PUSH2 0x980 DUP2 PUSH2 0x96B JUMP JUMPDEST DUP3 MSTORE POP POP JUMP JUMPDEST PUSH1 0x0 PUSH1 0x20 DUP3 ADD SWAP1 POP PUSH2 0x99B PUSH1 0x0 DUP4 ADD DUP5 PUSH2 0x977 JUMP JUMPDEST SWAP3 SWAP2 POP POP JUMP JUMPDEST PUSH1 0x0 DUP3 DUP3 MSTORE PUSH1 0x20 DUP3 ADD SWAP1 POP SWAP3 SWAP2 POP POP JUMP JUMPDEST PUSH32 0x41756374696F6E2068617320616C726561647920656E6465642E000000000000 PUSH1 0x0 DUP3 ADD MSTORE POP JUMP JUMPDEST PUSH1 0x0 PUSH2 0x9E8 PUSH1 0x1A DUP4 PUSH2 0x9A1 JUMP JUMPDEST SWAP2 POP PUSH2 0x9F3 DUP3 PUSH2 0x9B2 JUMP JUMPDEST PUSH1 0x20 DUP3 ADD SWAP1 POP SWAP2 SWAP1 POP JUMP JUMPDEST PUSH1 0x0 PUSH1 0x20 DUP3 ADD SWAP1 POP DUP2 DUP2 SUB PUSH1 0x0 DUP4 ADD MSTORE PUSH2 0xA17 DUP2 PUSH2 0x9DB JUMP JUMPDEST SWAP1 POP SWAP2 SWAP1 POP JUMP JUMPDEST PUSH32 0x4E487B7100000000000000000000000000000000000000000000000000000000 PUSH1 0x0 MSTORE PUSH1 0x11 PUSH1 0x4 MSTORE PUSH1 0x24 PUSH1 0x0 REVERT JUMPDEST PUSH1 0x0 PUSH2 0xA58 DUP3 PUSH2 0x8DB JUMP JUMPDEST SWAP2 POP PUSH2 0xA63 DUP4 PUSH2 0x8DB JUMP JUMPDEST SWAP3 POP DUP3 DUP3 SUB SWAP1 POP DUP2 DUP2 GT ISZERO PUSH2 0xA7B JUMPI PUSH2 0xA7A PUSH2 0xA1E JUMP JUMPDEST JUMPDEST SWAP3 SWAP2 POP POP JUMP JUMPDEST PUSH1 0x0 PUSH2 0xA8C DUP3 PUSH2 0x8DB JUMP JUMPDEST SWAP2 POP PUSH2 0xA97 DUP4 PUSH2 0x8DB JUMP JUMPDEST SWAP3 POP DUP3 DUP3 MUL PUSH2 0xAA5 DUP2 PUSH2 0x8DB JUMP JUMPDEST SWAP2 POP DUP3 DUP3 DIV DUP5 EQ DUP4 ISZERO OR PUSH2 0xABC JUMPI PUSH2 0xABB PUSH2 0xA1E JUMP JUMPDEST JUMPDEST POP SWAP3 SWAP2 POP POP JUMP JUMPDEST PUSH32 0x4269642076616C7565206973206C6F776572207468616E207468652063616C63 PUSH1 0x0 DUP3 ADD MSTORE PUSH32 0x756C617465642070726963652E00000000000000000000000000000000000000 PUSH1 0x20 DUP3 ADD MSTORE POP JUMP JUMPDEST PUSH1 0x0 PUSH2 0xB1F PUSH1 0x2D DUP4 PUSH2 0x9A1 JUMP JUMPDEST SWAP2 POP PUSH2 0xB2A DUP3 PUSH2 0xAC3 JUMP JUMPDEST PUSH1 0x40 DUP3 ADD SWAP1 POP SWAP2 SWAP1 POP JUMP JUMPDEST PUSH1 0x0 PUSH1 0x20 DUP3 ADD SWAP1 POP DUP2 DUP2 SUB PUSH1 0x0 DUP4 ADD MSTORE PUSH2 0xB4E DUP2 PUSH2 0xB12 JUMP JUMPDEST SWAP1 POP SWAP2 SWAP1 POP JUMP JUMPDEST PUSH32 0x41756374696F6E2068617320616C726561647920636C6F73656420616E642077 PUSH1 0x0 DUP3 ADD MSTORE PUSH32 0x696E6E657220686173206265656E2064657465726D696E65642E000000000000 PUSH1 0x20 DUP3 ADD MSTORE POP JUMP JUMPDEST PUSH1 0x0 PUSH2 0xBB1 PUSH1 0x3A DUP4 PUSH2 0x9A1 JUMP JUMPDEST SWAP2 POP PUSH2 0xBBC DUP3 PUSH2 0xB55 JUMP JUMPDEST PUSH1 0x40 DUP3 ADD SWAP1 POP SWAP2 SWAP1 POP JUMP JUMPDEST PUSH1 0x0 PUSH1 0x20 DUP3 ADD SWAP1 POP DUP2 DUP2 SUB PUSH1 0x0 DUP4 ADD MSTORE PUSH2 0xBE0 DUP2 PUSH2 0xBA4 JUMP JUMPDEST SWAP1 POP SWAP2 SWAP1 POP JUMP JUMPDEST PUSH32 0x53656C6C65722063616E6E6F7420626964206F6E20686973206F776E20617563 PUSH1 0x0 DUP3 ADD MSTORE PUSH32 0x74696F6E2E000000000000000000000000000000000000000000000000000000 PUSH1 0x20 DUP3 ADD MSTORE POP JUMP JUMPDEST PUSH1 0x0 PUSH2 0xC43 PUSH1 0x25 DUP4 PUSH2 0x9A1 JUMP JUMPDEST SWAP2 POP PUSH2 0xC4E DUP3 PUSH2 0xBE7 JUMP JUMPDEST PUSH1 0x40 DUP3 ADD SWAP1 POP SWAP2 SWAP1 POP JUMP JUMPDEST PUSH1 0x0 PUSH1 0x20 DUP3 ADD SWAP1 POP DUP2 DUP2 SUB PUSH1 0x0 DUP4 ADD MSTORE PUSH2 0xC72 DUP2 PUSH2 0xC36 JUMP JUMPDEST SWAP1 POP SWAP2 SWAP1 POP JUMP INVALID LOG2 PUSH5 0x6970667358 0x22 SLT KECCAK256 0xE0 CALLDATACOPY 0xCE PUSH10 0x248205D3F82B21FEFB22 EQ MOD 0xB7 SWAP7 0xB8 LOG0 DIV 0xDA PUSH14 0xBD736BA0A7A46D5C7264736F6C63 NUMBER STOP ADDMOD SLT STOP CALLER "},"methodIdentifiers":{"auctionEndBlock()":"07d52fa8","auction_open()":"2c3d4c89","bid()":"1998aeef","currentPrice()":"9d1b464a","get_current_price()":"676a38d7","initialPrice()":"1d0806ae","numBlocksAuctionOpen()":"3103ea62","offerPriceDecrement()":"d3642a88","reservePrice()":"db2e1eed","seller()":"08551a53","winner()":"dfbf53ae"}}}}}